:100000000C9473000C949E000C949E000C949E0023
:100010000C949E000C949E000C949E000C949E00E8
:100020000C949E000C949E000C949E000C949E00D8
:100030000C949E000C949E000C949E000C949E00C8
:100040000C949E000C949E000C949E000C949E00B8
:100050000C949E000C949E000C949E000C946D01D8
:100060000C949E000C9470020C949E000C949E00C4
:100070000C949E000C949E000C949E000C949E0088
:100080000C949E000C949E000C949E000C949E0078
:100090000C94B1020C949E000C949E000C949E0053
:1000A0000C949E000C949E000C949E000C949E0058
:1000B0000C949E000C949E000C949E000C949E0048
:1000C0000C949E000C949E000C949E000C94F202E2
:1000D0000C949E000C949E000C9433030C949E0090
:1000E0000C949E00800411241FBECFEFD1E2DEBF2E
:1000F000CDBF12E0A0E0B2E0EEEFF2E100E00BBF16
:1001000002C007900D92A231B107D9F71BBE14E0CF
:10011000A2E1B2E001C01D92A33AB107E1F710E0FD
:10012000C6EED0E004C02297FE010E947909C43EC9
:10013000D107C9F70E9466010C947D090C94000058
:10014000CF93DF9310923D0210923C0251C08091F8
:1001500012020E944002CC0FDD1FCC0FDD1FC45ED7
:10016000DD4FAA2797FDA095BA2FBC01CD010E94B3
:10017000E10720E030E040EA5BE30E94910820E0E4
:1001800030E048EC52E40E949108688379838A83C6
:100190009B83E0913C02F0913D02EE0FFF1FEE0FBA
:1001A000FF1FE45EFD4F6091140270911502809173
:1001B00016029091170220813181428153810E9461
:1001C000DE066093140270931502809316029093DA
:1001D000170266E970E080E090E00E94B50180912E
:1001E0003C0290913D02019690933D0280933C0227
:1001F000C0913C02D0913D02C830D1050CF4A7CF8C
:10020000609114027091150280911602909117026C
:1002100020E030E040E05EE30E9491086093140229
:1002200070931502809316029093170220E030E03D
:1002300040E151E40E94910820E030E040EA50E4BF
:100240000E94460720E030E040E052E40E94DE06D3
:10025000609318027093190280931A0290931B0204
:1002600087E594E060E072E00E9487054091140207
:1002700050911502609116027091170287E594E083
:100280000E94D90687E594E062E072E00E9487054B
:1002900080E090E0A0E0B0E080931402909315021B
:1002A000A0931602B093170264E670E080E090E03D
:1002B0000E94B501DF91CF91089587E594E040E871
:1002C00055E260E070E00E94740308950E94DF012F
:1002D0000E945D010E94A000FDCF1F920F920FB6F9
:1002E0000F9211242F933F938F939F93AF93BF93BC
:1002F0008091420290914302A0914402B091450244
:10030000309146020196A11DB11D232F2D5F2D377F
:1003100020F02D570196A11DB11D20934602809318
:10032000420290934302A0934402B093450280910D
:100330003E0290913F02A0914002B091410201968D
:10034000A11DB11D80933E0290933F02A0934002F5
:10035000B0934102BF91AF919F918F913F912F91A7
:100360000F900FBE0F901F901895EF92FF920F9372
:100370001F937B018C018FB7F894409142025091FA
:10038000430260914402709145028FBF2FB7F894E9
:100390008091420290914302A0914402B0914502A3
:1003A0002FBF841B950BA60BB70BE816F9060A079F
:1003B0001B0760F71F910F91FF90EF9008957894BD
:1003C00084B5826084BD84B5816084BD85B582605A
:1003D00085BD85B5816085BDEEE6F0E080818160F8
:1003E0008083E1E8F0E080818260808380818160A9
:1003F0008083E0E8F0E0808181608083E1EBF0E0E1
:10040000808184608083E0EBF0E080818160808384
:10041000E1E9F0E080818260808380818160808377
:10042000E1EAF0E080818260808380818160808366
:10043000E1E2F1E08081826080838081816080835D
:10044000E0E9F0E0808181608083E0EAF0E0808193
:1004500081608083E0E2F1E0808181608083EAE76F
:10046000F0E08081846080838081826080838081ED
:10047000816080838081806880831092C1000895AC
:10048000382F3F70209106022295220F220F207CE8
:10049000232B20937C0020917B0086958695869562
:1004A00090E08170907033E0880F991F3A95E1F7E2
:1004B000277F282B20937B0080917A008064809393
:1004C0007A0080917A0086FDFCCF209178004091DF
:1004D0007900942F80E030E0282B392BC901089552
:1004E0001F920F920FB60F920BB60F9211242F93FB
:1004F0003F934F935F936F937F938F939F93AF93AC
:10050000BF93EF93FF934091C600E091C702F09133
:10051000C802CF01019660E870E00E9413099C01B7
:100520008091C9029091CA022817390739F0E95B16
:10053000FD4F40833093C8022093C702FF91EF9193
:10054000BF91AF919F918F917F916F915F914F91EB
:100550003F912F910F900BBE0F900FBE0F901F90E9
:1005600018951F920F920FB60F920BB60F9211248F
:100570002F933F934F935F936F937F938F939F93AB
:10058000AF93BF93EF93FF934091CE00E0914B0365
:10059000F0914C03CF01019660E870E00E941309CE
:1005A0009C0180914D0390914E032817390739F033
:1005B000E553FD4F408330934C0320934B03FF9151
:1005C000EF91BF91AF919F918F917F916F915F91CB
:1005D0004F913F912F910F900BBE0F900FBE0F9038
:1005E0001F9018951F920F920FB60F920BB60F9295
:1005F00011242F933F934F935F936F937F938F9328
:100600009F93AF93BF93EF93FF934091D600E091F8
:10061000CF03F091D003CF01019660E870E00E9413
:1006200013099C018091D1039091D20328173907B7
:1006300039F0E15BFC4F40833093D0032093CF032C
:10064000FF91EF91BF91AF919F918F917F916F91AA
:100650005F914F913F912F910F900BBE0F900FBE66
:100660000F901F9018951F920F920FB60F920BB616
:100670000F9211242F933F934F935F936F937F9328
:100680008F939F93AF93BF93EF93FF934091360166
:10069000E0915304F0915404CF01019660E870E0BA
:1006A0000E9413099C0180915504909156042817CB
:1006B000390739F0ED52FC4F4083309354042093B6
:1006C0005304FF91EF91BF91AF919F918F917F91D3
:1006D0006F915F914F913F912F910F900BBE0F90B3
:1006E0000FBE0F901F9018955F926F927F928F921E
:1006F0009F92AF92BF92CF92DF92EF92FF920F93B1
:100700001F93CF93DF93EC013A014B01413482E414
:1007100058078FE0680780E078070CF07FC060E83A
:1007200074E88EE190E0A40193010E9448092150F1
:10073000304040405040CA01B90122E030E040E082
:1007400050E00E94480959016A01A60195012095CF
:1007500030954095509594E0220F331F441F551F4C
:100760009A95D1F760E074E284EF90E00E94480926
:10077000CA01B9012FEF30E040E050E00E94F408D8
:10078000A40193010E944809C90181509F4F181686
:1007900019061CF4522E5A9403C055245394521A2D
:1007A00060E079E08DE390E0A40193010E944809A4
:1007B0002150304040405040CA01B90122E030E0B1
:1007C00040E050E00E9448092095309540955095B2
:1007D00083E0220F331F441F551F8A95D1F760E035
:1007E00074E284EF90E00E944809CA01B9012FEF3A
:1007F00030E040E050E00E94F408A40193010E9420
:100800004809C90181509F4F181619061CF4822F00
:10081000815002C081E0821B851500F5E885F985CD
:1008200081E090E00A8802C0880F991F0A94E2F7DD
:10083000808360E079E08DE390E0A40193010E9461
:1008400048092150304040405040CA01B90122E0DF
:1008500030E040E050E00E94480904C0E885F98596
:1008600010829501EC81FD813083EE81FF81208330
:10087000EA85FB85208141E050E0CA010E8402C078
:10088000880F991F0A94E2F7282B2083EA85FB85BD
:100890002081CA010F8402C0880F991F0A94E2F7D1
:1008A000282B2083EA85FB858081088802C0440FBD
:1008B000551F0A94E2F7842B8083DF91CF911F911B
:1008C0000F91FF90EF90DF90CF90BF90AF909F90EF
:1008D0008F907F906F905F900895FC01A085B18507
:1008E00021898C9190E0022E02C0959587950A94FB
:1008F000E2F780FFF6CF0484F585E02D608308954C
:100900002BE032E0309358042093570487E492E0C0
:1009100090935A048093590485EC90E090935C0482
:1009200080935B0484EC90E090935E0480935D047C
:1009300080EC90E09093600480935F0481EC90E001
:10094000909362048093610486EC90E09093640439
:1009500080936304E4E0E093650473E070936604BD
:1009600067E06093670455E05093680441E040936A
:10097000690430936B0420936A048BEC92E09093AB
:100980006D0480936C048DEC90E090936F048093E1
:100990006E048CEC90E0909371048093700488EC6A
:1009A00090E0909373048093720489EC90E09093AC
:1009B0007504809374048EEC90E090937704809398
:1009C0007604E09378047093790460937A045093EA
:1009D0007B0440937C0430937E0420937D048FE459
:1009E00093E09093800480937F0485ED90E0909352
:1009F00082048093810484ED90E09093840480933A
:100A0000830480ED90E0909386048093850481EDCB
:100A100090E0909388048093870486ED90E0909313
:100A20008A0480938904E0938B0470938C04609310
:100A30008D0450938E0440938F043093910420933F
:100A4000900483ED93E0909393048093920485E364
:100A500091E0909395048093940484E391E09093C3
:100A600097048093960480E391E090939904809397
:100A7000980481E391E090939B0480939A0486E329
:100A800091E090939D0480939C04E0939E04709366
:100A90009F046093A0045093A1044093A20408957E
:100AA0000F931F93CF93DF938C01EB0109C0219625
:100AB000D801ED91FC910190F081E02DC8010995DC
:100AC00068816623A1F7DF91CF911F910F9108955F
:100AD000EF92FF920F931F93CF93DF938C017B01D3
:100AE000EA010CC0D7016D917D01D801ED91FC9117
:100AF0000190F081E02DC80109952197209791F789
:100B0000DF91CF911F910F91FF90EF900895DC013D
:100B1000ED91FC910280F381E02D099508952F92CB
:100B20003F924F925F926F927F928F929F92AF927D
:100B3000BF92CF92DF92EF92FF920F931F93DF93BA
:100B4000CF93CDB7DEB7A0970FB6F894DEBF0FBE38
:100B5000CDBF1C016A017B0141155105610571057D
:100B600049F4DC01ED91FC910190F081E02D60E30E
:100B7000099554C0882499245401422E5524662492
:100B8000772401E010E00C0F1D1F080D191DC7018F
:100B9000B601A30192010E942609F801608308941E
:100BA000811C911CA11CB11CC701B601A3019201BB
:100BB0000E942609C901DA016C017D01C114D1042A
:100BC000E104F104F1F681E0E82EF12CEC0EFD1EBB
:100BD000E80CF91C3E010894611C711CD501C4018C
:100BE0000197A109B1096C01C818D90814C0F60110
:100BF000EE0DFF1D60816A3010F4605D01C0695C1C
:100C0000D101ED91FC910190F081E02DC101099598
:100C10000894E108F1086E147F0449F7A0960FB616
:100C2000F894DEBF0FBECDBFCF91DF911F910F9122
:100C3000FF90EF90DF90CF90BF90AF909F908F90FC
:100C40007F906F905F904F903F902F9008952AE093
:100C50000E948F050895EF92FF920F931F93CF93F9
:100C6000DF93EC017A018B0177FF0FC0E881F981F6
:100C70000190F081E02D6DE2099510950095F094BA
:100C8000E094E11CF11C011D111DCE01B801A7016A
:100C90002AE00E948F05DF91CF911F910F91FF9065
:100CA000EF9008959F92AF92BF92CF92DF92EF9212
:100CB000FF920F931F93CF93DF93EC017A018B0187
:100CC000922ECB01BA0120E030E040E050E00E94DB
:100CD0004207882364F4E881F9810190F081E02DD6
:100CE000CE016DE2099517FB109517F9109520E0DC
:100CF00030E040E05FE3AA240BC0CA01B90120E064
:100D000030E040E251E40E9446079B01AC01A3940D
:100D1000A91498F3C801B7010E94DE065B016C01BB
:100D20000E94B3077B018C01CE01B801A7010E948C
:100D30002706992029F0CE0164E072E00E94870521
:100D4000C801B7010E94DF079B01AC01C601B501D4
:100D50000E94DD0620C020E030E040E251E40E9425
:100D600091087B018C010E94AE075B016C01CC24D1
:100D7000B7FCC094DC2CCE01B601A5010E942B0665
:100D8000C601B5010E94E1079B01AC01C801B70192
:100D90000E94DD069A949920F1F6DF91CF911F9180
:100DA0000F91FF90EF90DF90CF90BF90AF909F900A
:100DB000089522E00E94520608955058BB27AA27A2
:100DC0000ED075C166D130F06BD120F031F49F3F69
:100DD00011F41EF45BC10EF4E095E7FB51C1E92F5D
:100DE00077D180F3BA17620773078407950718F065
:100DF00071F49EF58FC10EF4E0950B2EBA2FA02D45
:100E00000B01B90190010C01CA01A0011124FF27B7
:100E1000591B99F0593F50F4503E68F11A16F040B2
:100E2000A22F232F342F4427585FF3CF46953795B1
:100E30002795A795F0405395C9F77EF41F16BA0B76
:100E4000620B730B840BBAF09150A1F0FF0FBB1F24
:100E5000661F771F881FC2F70EC0BA0F621F731F6D
:100E6000841F48F4879577956795B795F7959E3FCA
:100E700008F0B3CF9395880F08F09927EE0F979558
:100E800087950895D9D008F481E008950CD00FC15A
:100E900007D140F0FED030F021F45F3F19F0F0C0F0
:100EA000511139C1F3C014D198F39923C9F35523D3
:100EB000B1F3951B550BBB27AA276217730784074D
:100EC00038F09F5F5F4F220F331F441FAA1FA9F303
:100ED00033D00E2E3AF0E0E830D091505040E695F5
:100EE000001CCAF729D0FE2F27D0660F771F881F56
:100EF000BB1F261737074807AB07B0E809F0BB0B45
:100F0000802DBF01FF2793585F4F2AF09E3F510568
:100F100068F0B6C000C15F3FECF3983EDCF3869505
:100F200077956795B795F7959F5FC9F7880F911DDE
:100F30009695879597F90895E1E0660F771F881FCA
:100F4000BB1F621773078407BA0720F0621B730B7D
:100F5000840BBA0BEE1F88F7E095089504D06894CF
:100F6000B111D9C00895BCD088F09F5790F0B92F27
:100F70009927B751A0F0D1F0660F771F881F991FEE
:100F80001AF0BA95C9F712C0B13081F0C3D0B1E000
:100F90000895C0C0672F782F8827B85F39F0B93F10
:100FA000CCF3869577956795B395D9F73EF49095F0
:100FB0008095709561957F4F8F4F9F4F0895E8946E
:100FC00009C097FB3EF490958095709561957F4F91
:100FD0008F4F9F4F9923A9F0F92F96E9BB2793953F
:100FE000F695879577956795B795F111F8CFFAF44F
:100FF000BB0F11F460FF1BC06F5F7F4F8F4F9F4F80
:1010000016C0882311F096E911C0772321F09EE8DD
:10101000872F762F05C0662371F096E8862F70E043
:1010200060E02AF09A95660F771F881FDAF7880F1D
:101030009695879597F90895990F0008550FAA0B73
:10104000E0E8FEEF16161706E807F907C0F01216DB
:101050001306E407F50798F0621B730B840B950BDE
:1010600039F40A2661F0232B242B252B21F4089533
:101070000A2609F4A140A6958FEF811D811D0895D0
:1010800097F99F6780E870E060E008959FEF80EC3B
:10109000089500240A9416161706180609060895DE
:1010A00000240A9412161306140605060895092E44
:1010B0000394000C11F4882352F0BB0F40F4BF2BB3
:1010C00011F460FF04C06F5F7F4F8F4F9F4F0895F3
:1010D00057FD9058440F551F59F05F3F71F04795E9
:1010E000880F97FB991F61F09F3F79F087950895CE
:1010F000121613061406551FF2CF4695F1DF08C0ED
:10110000161617061806991FF1CF86957105610509
:1011100008940895E894BB2766277727CB0197F9B1
:1011200008950BD0C4CFB5DF28F0BADF18F09523AF
:1011300009F0A6CFABCF1124EECFCADFA0F3959F65
:10114000D1F3950F50E0551F629FF001729FBB27AE
:10115000F00DB11D639FAA27F00DB11DAA1F649F5A
:101160006627B00DA11D661F829F2227B00DA11D0D
:10117000621F739FB00DA11D621F839FA00D611D93
:10118000221F749F3327A00D611D231F849F600DB4
:10119000211D822F762F6A2F11249F5750408AF0ED
:1011A000E1F088234AF0EE0FFF1FBB1F661F771F79
:1011B000881F91505040A9F79E3F510570F060CFB5
:1011C000AACF5F3FECF3983EDCF386957795679561
:1011D000B795F795E7959F5FC1F7FE2B880F911D97
:1011E0009695879597F90895629FD001739FF001B6
:1011F000829FE00DF11D649FE00DF11D929FF00DA7
:10120000839FF00D749FF00D659FF00D9927729FDD
:10121000B00DE11DF91F639FB00DE11DF91FBD0168
:10122000CF011124089597FB092E07260AD077FDD8
:1012300004D049D006D000201AF4709561957F4FF4
:101240000895F6F7909581959F4F0895A1E21A2E83
:10125000AA1BBB1BFD010DC0AA1FBB1FEE1FFF1F5A
:10126000A217B307E407F50720F0A21BB30BE40BAA
:10127000F50B661F771F881F991F1A9469F76095F1
:101280007095809590959B01AC01BD01CF010895AB
:1012900097FB092E05260ED057FD04D0D7DF0AD0C4
:1012A000001C38F450954095309521953F4F4F4F95
:1012B0005F4F0895F6F790958095709561957F4FF3
:1012C0008F4F9F4F0895AA1BBB1B51E107C0AA1F58
:1012D000BB1FA617B70710F0A61BB70B881F991FD7
:1012E0005A95A9F780959095BC01CD010895EE0F10
:0E12F000FF1F0590F491E02D0994F894FFCFB4
:1012FE003F0025002E0001000000006D045005681F
:02130E000500D8
:00000001FF
